{
  "contractName": "DummyContractV1",
  "abi": [
    {
      "constant": true,
      "inputs": [],
      "name": "hello",
      "outputs": [
        {
          "name": "",
          "type": "string"
        }
      ],
      "payable": false,
      "stateMutability": "pure",
      "type": "function"
    },
    {
      "constant": true,
      "inputs": [],
      "name": "goodbye",
      "outputs": [
        {
          "name": "",
          "type": "string"
        }
      ],
      "payable": false,
      "stateMutability": "pure",
      "type": "function"
    }
  ],
  "bytecode": "0x608060405234801561001057600080fd5b50610217806100206000396000f30060806040526004361061004c576000357c0100000000000000000000000000000000000000000000000000000000900463ffffffff16806319ff1d211461005157806375fc8e3c146100e1575b600080fd5b34801561005d57600080fd5b50610066610171565b6040518080602001828103825283818151815260200191508051906020019080838360005b838110156100a657808201518184015260208101905061008b565b50505050905090810190601f1680156100d35780820380516001836020036101000a031916815260200191505b509250505060405180910390f35b3480156100ed57600080fd5b506100f66101ae565b6040518080602001828103825283818151815260200191508051906020019080838360005b8381101561013657808201518184015260208101905061011b565b50505050905090810190601f1680156101635780820380516001836020036101000a031916815260200191505b509250505060405180910390f35b60606040805190810160405280600681526020017f48656c6c6f210000000000000000000000000000000000000000000000000000815250905090565b60606040805190810160405280600581526020017f4164696f730000000000000000000000000000000000000000000000000000008152509050905600a165627a7a723058208408186fac95b5943dbd9475cb0805dfdac2fb9f3b80e3f468f79eabfa183d8d0029",
  "source": "pragma solidity ^0.4.24;\r\n\r\ncontract DummyContractV0 {\r\n    function hello() public pure returns(string) {\r\n        return \"Konichiwa!\";\r\n    }\r\n}\r\n\r\ncontract DummyContractV1 is DummyContractV0 {\r\n    function hello() public pure returns(string) {\r\n        return \"Hello!\";\r\n    }\r\n\r\n    function goodbye() public pure returns(string) {\r\n        return \"Adios\";\r\n    }\r\n}",
  "sourcePath": "C:\\Users\\npain\\Projects\\Carbon\\UpgradeableERC20\\contracts\\upgradeability\\mocks\\DummyContract.sol",
  "compiler": {
    "name": "solc",
    "version": "0.4.24+commit.e67f0147.Emscripten.clang"
  },
  "schemaVersion": "2.0.1",
  "updatedAt": "2018-09-20T19:04:59.102Z"
}