{
  "contractName": "TokenStorage",
  "abi": [
    {
      "constant": true,
      "inputs": [],
      "name": "allowances",
      "outputs": [
        {
          "name": "",
          "type": "address"
        }
      ],
      "payable": false,
      "stateMutability": "view",
      "type": "function"
    },
    {
      "constant": true,
      "inputs": [],
      "name": "balances",
      "outputs": [
        {
          "name": "",
          "type": "address"
        }
      ],
      "payable": false,
      "stateMutability": "view",
      "type": "function"
    },
    {
      "inputs": [
        {
          "name": "_balances",
          "type": "address"
        },
        {
          "name": "_allowances",
          "type": "address"
        }
      ],
      "payable": false,
      "stateMutability": "nonpayable",
      "type": "constructor"
    },
    {
      "constant": false,
      "inputs": [],
      "name": "claimBalanceOwnership",
      "outputs": [],
      "payable": false,
      "stateMutability": "nonpayable",
      "type": "function"
    },
    {
      "constant": false,
      "inputs": [],
      "name": "claimAllowanceOwnership",
      "outputs": [],
      "payable": false,
      "stateMutability": "nonpayable",
      "type": "function"
    }
  ],
  "bytecode": "0x608060405234801561001057600080fd5b506040516040806103c88339810180604052810190808051906020019092919080519060200190929190505050816000806101000a81548173ffffffffffffffffffffffffffffffffffffffff021916908373ffffffffffffffffffffffffffffffffffffffff16021790555080600160006101000a81548173ffffffffffffffffffffffffffffffffffffffff021916908373ffffffffffffffffffffffffffffffffffffffff16021790555050506102f9806100cf6000396000f300608060405260043610610062576000357c0100000000000000000000000000000000000000000000000000000000900463ffffffff1680633ed10b92146100675780637bb98a68146100be5780638955ed7e146101155780639b2bdc201461012c575b600080fd5b34801561007357600080fd5b5061007c610143565b604051808273ffffffffffffffffffffffffffffffffffffffff1673ffffffffffffffffffffffffffffffffffffffff16815260200191505060405180910390f35b3480156100ca57600080fd5b506100d3610169565b604051808273ffffffffffffffffffffffffffffffffffffffff1673ffffffffffffffffffffffffffffffffffffffff16815260200191505060405180910390f35b34801561012157600080fd5b5061012a61018e565b005b34801561013857600080fd5b5061014161022d565b005b600160009054906101000a900473ffffffffffffffffffffffffffffffffffffffff1681565b6000809054906101000a900473ffffffffffffffffffffffffffffffffffffffff1681565b6000809054906101000a900473ffffffffffffffffffffffffffffffffffffffff1673ffffffffffffffffffffffffffffffffffffffff16634e71e0c86040518163ffffffff167c0100000000000000000000000000000000000000000000000000000000028152600401600060405180830381600087803b15801561021357600080fd5b505af1158015610227573d6000803e3d6000fd5b50505050565b600160009054906101000a900473ffffffffffffffffffffffffffffffffffffffff1673ffffffffffffffffffffffffffffffffffffffff16634e71e0c86040518163ffffffff167c0100000000000000000000000000000000000000000000000000000000028152600401600060405180830381600087803b1580156102b357600080fd5b505af11580156102c7573d6000803e3d6000fd5b505050505600a165627a7a723058206e07598f749db42b2f56570366c3c39d17e2d7b7b6d14e793e53d22f6621b33f0029",
  "source": "pragma solidity ^0.4.24;\r\n\r\nimport \"./AllowanceSheet.sol\";\r\nimport \"./BalanceSheet.sol\";\r\n\r\n/**\r\n* @title TokenStorage\r\n*/\r\ncontract TokenStorage {\r\n    /**\r\n        Storage\r\n    */\r\n    BalanceSheet public balances;\r\n    AllowanceSheet public allowances;\r\n\r\n    /**\r\n    * @dev a TokenStorage consumer can set its storages only once, on construction\r\n    *\r\n    **/\r\n    constructor (address _balances, address _allowances) public {\r\n        balances = BalanceSheet(_balances);\r\n        allowances = AllowanceSheet(_allowances);\r\n    }\r\n\r\n    /**\r\n    * @dev claim ownership of balance sheet passed into constructor.\r\n    **/\r\n    function claimBalanceOwnership() public {\r\n        balances.claimOwnership();\r\n    }\r\n\r\n    /**\r\n    * @dev claim ownership of allowance sheet passed into constructor.\r\n    **/\r\n    function claimAllowanceOwnership() public {\r\n        allowances.claimOwnership();\r\n    }\r\n}",
  "sourcePath": "C:\\Users\\npain\\Projects\\Carbon\\UpgradeableERC20\\contracts\\token\\dataStorage\\TokenStorage.sol",
  "compiler": {
    "name": "solc",
    "version": "0.4.24+commit.e67f0147.Emscripten.clang"
  },
  "schemaVersion": "2.0.1",
  "updatedAt": "2018-09-23T17:57:34.137Z"
}